:020000040800F2
:10000000B806002089010008590C0008FF05000807
:10001000A30B000893040008FD1400080000000072
:10002000000000000000000000000000C5100008F3
:100030009704000800000000811000086D120008FD
:10004000A3010008A3010008A3010008A301000800
:10005000A3010008A3010008A3010008A3010008F0
:10006000A3010008A3010008A3010008A3010008E0
:10007000A3010008A3010008A3010008A3010008D0
:10008000A3010008A3010008A3010008A3010008C0
:10009000A3010008A3010008A3010008A3010008B0
:1000A000A3010008A3010008A3010008A3010008A0
:1000B000A3010008A3010008A3010008A301000890
:1000C000A3010008A3010008A3010008A301000880
:1000D000A3010008A3010008A3010008A301000870
:1000E000A3010008A3010008A301000800F002F822
:1000F00000F03AF80AA090E8000C82448344AAF188
:100100000107DA4501D100F02FF8AFF2090EBAE885
:100110000F0013F0010F18BFFB1A43F0010318473B
:1001200088660000A8660000103A24BF78C878C12D
:10013000FAD8520724BF30C830C144BF04680C60ED
:10014000704700000023002400250026103A28BF35
:1001500078C1FBD8520728BF30C148BF0B60704739
:100160001FB51FBD10B510BD00F05EF91146FFF7B9
:10017000F7FF02F009FF00F07CF903B4FFF7F2FF8C
:1001800003BC00F07FF90000094880470948004798
:10019000FEE7FEE7FEE7FEE7FEE7FEE7FEE7FEE737
:1001A000FEE7FEE704480549054A064B7047000094
:1001B00071120008ED000008B8000020B806002009
:1001C000B8020020B802002010B54C1084EA530495
:1001D00004D54042C1F1000138BF491E1B4204D57D
:1001E0005242C3F1000338BF5B1E00F048F814F020
:1001F000804F04D04042C1F1000138BF491E14F0C5
:10020000004F04D05242C3F1000338BF5B1E10BD43
:1002100040EA010310B59B070FD1042A0DD310C883
:1002200008C9121F9C42F8D020BA19BA884201D9D5
:10023000012010BD4FF0FF3010BD1AB1D30703D01D
:10024000521C07E0002010BD10F8013B11F8014BD3
:100250001B1B07D110F8013B11F8014B1B1B01D1EF
:10026000921EF1D1184610BD02F0FF0343EA0322AB
:1002700042EA024200F087B870477047704753EA7D
:10028000020C00F069802DE9F04B4FF00006002BC6
:100290001FBFB3FA83F503FA05F424FA05F65E40AE
:1002A00012BF1643B2FA82F502FA05F4C5F1200531
:1002B0001EBF22FA05FC44EA0C04203556EA044C21
:1002C0004FEA144418BF641C4FF000084FF00009B7
:1002D000904271EB030C39D3002919BFB1FA81F7B1
:1002E00001FA07F6B0FA80F700FA07F6C7F120071F
:1002F0001EBF20FA07FC46EA0C062037B6FBF4FCCA
:10030000A7EB0507103F07F01F0BCBF120060CFAF7
:100310000BFB2CFA06F644BFB3460026202FA4BFE1
:100320005E464FF0000B5BEA060C08BF4FF0010B76
:1003300019EB0B09ABFB027C48EB0608C01B06FB64
:1003400002CC0BFB03CC71EB0C01C1E70B46024660
:1003500041464846BDE8F08B13B54FF000004FF022
:100360000001AFF30080BDE81C40704710B500F0FD
:100370002BF8006810BD10B5044600F025F80460A5
:1003800010BD4FF000020429C0F0128010F0030CE1
:1003900000F02080CCF1040CBCF1020F18BF00F873
:1003A000012BA8BF20F8022BA1EB0C0100F012B822
:1003B0005FEAC17C24BF00F8012B00F8012B48BF85
:1003C00000F8012B704700000048704754000020DF
:1003D0004FF0000200B5134694469646203922BFDE
:1003E000A0E80C50A0E80C50B1F12001BFF4F7AF29
:1003F000090728BFA0E80C5048BF0CC05DF804EB0B
:10040000890028BF40F8042B08BF704748BF20F878
:10041000022B11F0804F18BF00F8012B704700002D
:1004200000487047540000207546FFF7F9FFAE46BC
:1004300005006946534620F00700854618B020B5F0
:10044000FFF7B0FEBDE820404FF000064FF0000778
:100450004FF000084FF0000B21F00701AC46ACE86C
:10046000C009ACE8C009ACE8C009ACE8C0098D46D9
:10047000704710B50446AFF300802046BDE8104039
:10048000FFF77BBE01491820ABBEFEE72600020045
:10049000704700BFFEE7704700B5034603E04FF426
:1004A0007A7000F005F8181EA3F10103F7D100BD22
:1004B00000EBC001C9004FF0E022516100219161C1
:1004C0000521116100BF4FF0E021096901F480317D
:1004D0000029F8D004214FF0E022116170472DE986
:1004E000F0410246002500260020002300240027BA
:1004F00091F803C00CF00F0591F803C00CF0100C3C
:10050000BCF1000F03D091F802C04CEA050591F848
:1005100000C0BCF1000F31D0146800202BE04FF078
:10052000010C0CFA00F3B1F800C00CEA03069E427D
:1005300020D183004FF00F0C0CFA03F7BC4305FAEF
:1005400003FC4CEA040491F803C0BCF1280F06D167
:100550004FF0010C0CFA00FCC2F814C00AE091F84C
:1005600003C0BCF1480F05D14FF0010C0CFA00FCA0
:10057000C2F810C0401C0828D1D31460B1F800C0E4
:10058000BCF1FF0F34DD546800202EE000F1080CB0
:100590004FF0010808FA0CF3B1F800C00CEA0306AA
:1005A0009E4221D183004FF00F0C0CFA03F7BC439D
:1005B00005FA03FC4CEA040491F803C0BCF1280FCF
:1005C00005D100F1080C08FA0CF8C2F8148091F873
:1005D00003C0BCF1480F07D100F1080C4FF001082F
:1005E00008FA0CF8C2F81080401C0828CED35460DA
:1005F000BDE8F0810AB1016100E04161704700BFD0
:10060000FEE700002DE9F04F99B004460D4616466E
:100610004FF07E574FF000084FF000094FF0000AEE
:1006200012A813A918AB0EAACDE9001014A916A898
:1006300001F0FEFC18B1012019B0BDE8F08FBDF843
:100640004C0000F4807000287ED00E9804F0CAFCA4
:1006500083464FF09D4104F093FB07460F9804F04A
:10066000C1FC83464FF09D4104F08AFB8046109800
:1006700004F0B8FC83464FF09D4104F081FB8146B5
:10068000119804F0AFFC83464FF09D4104F078FBD5
:10069000824639464FF0804004F004FD49460590FB
:1006A00004F000FD414607904FF0404004F0FAFC92
:1006B0005146059004F0F6FC0690079904F0F2FA12
:1006C000834604F0C3FACDE9080100F0E9FF4FF0DA
:1006D0006632544BCDE90A0103F0DEFFCDE90C018F
:1006E00003F0A0FD206049464FF0804004F0DAFCA2
:1006F0004946029004F0D6FC414604904FF0404039
:1007000004F0D0FC4146029004F0CCFC0390049924
:1007100004F0C6FD83464FF07E5104F0C3FA059005
:1007200004F094FACDE9080139464FF0804004F016
:10073000B9FC4146039004F0B5FC494604904FF0E3
:10074000804004F0AFFC00E068E05146039004F004
:10075000A9FC8346049904F0A5FA059004F076FA02
:10076000CDE90601DDE9082301F0E2F94FF0663238
:100770002C4BCDE90A0103F08FFFCDE90C0103F00A
:1007800051FD28605146504604F08CFC49460490C7
:10079000484604F087FC41460390404604F082FC42
:1007A00039460190384604F07DFC0090019904F030
:1007B00079FA0290039904F073FD8346049904F0DA
:1007C0006FFD059004F042FACDE908015146384624
:1007D00004F068FC49460490404604F063FC039032
:1007E000049904F05FFA4FF08041059004F05AFC40
:1007F000834604F02BFACDE90601DDE9082301F078
:1008000097F94FF06632074BCDE90A0103F044FF38
:10081000CDE90C0103F006FD306001E002200BE79A
:10082000002009E766A64C4010B500F025F802F05C
:10083000AFFDE0B9782003F08BFB782002F096FC46
:10084000642003F037FB01F0E7FB0A4802F060FB8D
:10085000044601F039FE40F2731001F085FA64207D
:1008600001F062FD03F026FC012003F01FFA0020D6
:1008700010BD00003800002008B50C20062304221B
:1008800001020090044800F08FF90120034908603C
:100890000349C1F8AC0108BD000C0140A881214208
:1008A0000080214210B5002400F054F801200F49C7
:1008B0000860042001F034FA01200D49C1F8A801B4
:1008C000042001F02DFA07E0601CC4B2FA2C03DD0D
:1008D00000F0C4F8012010BD0448803800680028EA
:1008E000F2D10249091F086000BFF4E7AC81214240
:1008F0000080214270B50646002400F02BF8002548
:1009000016E0002011490860042001F009FA0120D6
:100910000F49C1F8A8016006040E0C487C38006835
:1009200008B1601CC4B2042001F0FAF9681CC5B219
:10093000082DE6DB002005490860042001F0F0F9ED
:10094000304600F021F8204670BD0000A881214209
:100950000080214208B50C20072300224FF40061DB
:100960000090024800F020F908BD0000000C014092
:1009700008B50C200623042251020090014800F023
:1009800013F908BD000C014010B50446FFF7F0FF55
:100990000020094908600948C0F8AC41042001F072
:1009A000BFF9012004490860042001F0B9F90020D2
:1009B0000249C1F8A80110BDA8812142008021424E
:1009C00070B50446FFF7D4FF0020144908600025E5
:1009D0001EE0E00920B101201049091D086003E074
:1009E00000200E49091D08606006040E042001F075
:1009F00097F9012009490860042001F091F90020CD
:100A00000749C1F8A801042001F08AF9681CC5B2A1
:100A1000082DDEDBFFF746FF70BD0000A8812142F4
:100A20000080214210B5FFF7A3FF012009490860AB
:100A30000949C1F8A801042001F072F90020054914
:100A40000860042001F06CF900200349C1F8A801F6
:100A500010BD0000AC8121420080214210B5FFF79B
:100A600087FF00200A4908600A49C1F8AC01042048
:100A700001F056F9012006490860042001F050F900
:100A800001200449C1F8AC01042001F049F910BD6E
:100A9000A88121420080214210B5FFF7EDFE8021A0
:100AA0006B2002F05AFB642001F034F900216B2026
:100AB00002F053FB032000F031F8002000F025F88D
:100AC000C82000F052F80021382002F046FB002137
:100AD0006A2002F042FB0021232002F03EFB80212D
:100AE000372002F03AFB752002F00AFB0446682C1E
:100AF0000AD101216B2002F030FB00216C2002F0B2
:100B00002CFB642000F031F810BD10B50446E0065F
:100B1000010E1C2002F021FB002010BD10B5044680
:100B2000E006010E1B2002F018FB002010BD70B57E
:100B300004460025BC2C01DB012510E0622C01DB02
:100B400002250CE02A2C01DB032508E0142C01DB34
:100B5000042504E00A2C01DB052500E006252946D2
:100B60001A2002F0FAFA002070BD70B50446B4F500
:100B70007A7F01DD4FF47A74042C00DA04244FF4F8
:100B80007A7090FBF4F0401EC5B22946192002F09D
:100B9000E4FA264604EBD671C1F34F00FFF7C7FF16
:100BA00070BD00BFFEE700002DE9F84380460F4608
:100BB00014461D46089E2748A8EB0000022202EBBF
:100BC0009021104603F06CFA8146012100F06AFA88
:100BD000ADF80070012C02D100208DF8030024B97B
:100BE000062D02D104208DF8030024B9082D02D16E
:100BF00028208DF8030024B9072D02D148208DF854
:100C00000300022C02D114208DF80300042C02D121
:100C100010208DF80300032C02D11C208DF8030056
:100C2000052C02D118208DF80300092E02D10220D4
:100C30008DF802000B2E02D101208DF802000C2E3F
:100C400002D103208DF8020069464046FFF747FCB9
:100C5000BDE8F88300080140704770B500240EE03D
:100C60000021204600F0EFF8002504E0002000F00D
:100C70008CF9681CC5B2802DF8DB601CC4B2082C4E
:100C8000EEDB70BD08B50121082000F00BFA14203E
:100C90008DF8030003208DF802004FF48070ADF84A
:100CA000000069460A48FFF71AFC4FF40070ADF8DF
:100CB000000069460648FFF712FC012211020448B1
:100CC000FFF798FC012251020148FFF793FC08BD91
:100CD000000C014070B50546002415E0802020413D
:100CE00000EA05024FF400710E48FFF783FC012271
:100CF00011020C48FFF77EFC00224FF48071094876
:100D0000FFF778FC601CC4B2082CE7DB012211025B
:100D10000448FFF76FFC00224FF480710148FFF791
:100D200069FC70BD000C014010B5012251020A4857
:100D3000FFF760FC012211020748FFF75BFC00226D
:100D40004FF400710448FFF755FC00224FF4807106
:100D50000148FFF74FFC10BD000C014010B5002208
:100D60004FF400710648FFF745FC012211020448C8
:100D7000FFF740FC012251020148FFF73BFC10BD88
:100D8000000C014070B5002406E0002500E06D1C59
:100D9000B5F57A7FFBD3641CB4F57A7FF5D3FFF702
:100DA00071FFAE2000F0E1F8D52000F0DEF88020E1
:100DB00000F0DBF8A82000F0D8F83F2000F0D5F8CC
:100DC000D32000F0D2F8002000F0CFF8402000F04F
:100DD000CCF8A12000F0C9F8C82000F0C6F8DA204D
:100DE00000F0C3F8122000F0C0F8812000F0BDF838
:100DF000CF2000F0BAF8D92000F0B7F8F12000F0C9
:100E0000B4F8DB2000F0B1F8302000F0AEF8A420F8
:100E100000F0ABF8A62000F0A8F88D2000F0A5F8AF
:100E2000142000F0A2F8AF2000F09FF8FFF715FFA4
:100E300070BD10B50246012000E050430B1EA1F129
:100E40000101FAD110BD70B505460C4645F0B00061
:100E500000F08BF8102141EA141000F086F804F03D
:100E60000F0000F082F870BD2DE9F04105460E46F6
:100E70001746721ED206110E6A1E5206100EFFF79A
:100E8000E2FF002409E0A7F12001134A02EB01115F
:100E9000085D00F07AF8601CC4B2082CF3DB721E07
:100EA000D206110E6A1E012303EB4202D0B2FFF7F5
:100EB000CAFF00240BE0A7F12001074A02EB011250
:100EC00004F10801505C00F060F8601CC4B2082C0A
:100ED000F1DBBDE8F08100007A5400082DE9F0470D
:100EE0008146884615461E46002D06DB2B224146CC
:100EF0004846FFF7B9FF2F4605E02D2241464846F8
:100F0000FFF7B2FF6F42002417E0301B411E0A209A
:100F1000FFF78FFFB7FBF0F00A21B0FBF1F201FB06
:100F2000120000F1300A08EB0400401CC1B2524626
:100F30004846FFF799FF601CC4B2B442E5DBBDE848
:100F4000F0872DE9F04107460E461546002407E0DC
:100F50002A5D3019C1B23846FFF786FF601CC4B263
:100F6000285D0028F4D1BDE8F08110B50446FFF7F4
:100F7000DBFE7820FFF7AEFE0020FFF7ABFE204639
:100F8000FFF7A8FEFFF7EAFE10BD10B50446FFF715
:100F9000CBFE7820FFF79EFE4020FFF79BFE204609
:100FA000FFF798FEFFF7DAFE10BD000000B589B02C
:100FB0000121084600F066F80121042000F072F8D3
:100FC00018208DF823000620ADF8200003208DF8AE
:100FD000220008A91C48FFF782FA4FF0804000F079
:100FE00083F90020ADF81A00ADF8160044F61F6032
:100FF000ADF818004720ADF8140000208DF81C0053
:1010000005A94FF0804000F027FA01A800F014FA7B
:101010006020ADF804000020ADF80C000120ADF810
:1010200006000020ADF80A0001A94FF0804000F052
:1010300061F901A94FF0804000F0AEF90121880765
:1010400000F046F909B000BD0008014010B50446A3
:1010500021464FF0804000F0FBF910BD10B504466A
:101060002146024800F0F2F910BD000000040040E3
:1010700010B5044621464FF0804000F0EBF910BD5A
:101080007047000029B1064AD2690243044BDA6175
:1010900004E0034AD2698243014BDA6170470000E1
:1010A0000010024029B1064A92690243044B9A613A
:1010B00004E0034A92698243014B9A617047000041
:1010C00000100240704710B5FFF770FF10BD000020
:1010D0002DE9F04104460A49204603F051FE8046BE
:1010E000084903F0DFFF0746074903F0DBFD06462A
:1010F00003F058FF85B22846FFF7A8FFBDE8F0814E
:10110000000034430000FA440000FA432DE9F041A6
:1011100004460A49204603F033FE8046084903F09E
:10112000C1FF0746074903F0BDFD064603F03AFF3D
:1011300085B22846FFF792FFBDE8F08100003443F6
:101140000000FA440000FA432DE9F04104460A4940
:10115000204603F015FE8046084903F0A3FF07462A
:10116000074903F09FFD064603F01CFF85B22846A1
:10117000FFF77EFFBDE8F081000034430000FA4431
:101180000000FA4310B500F001F810BD0CB50020C6
:10119000019000903348006840F480303149086085
:1011A00000BF3048006800F4003000900198401CF7
:1011B0000190009818B90198B0F5A06FF1D12948B5
:1011C000006800F4003010B10120009001E0002020
:1011D00000900098012843D12348006840F0100097
:1011E000214908600846006820F0030008600846AE
:1011F000006840F0020008601A48406819494860D9
:101200000846406848600846406840F4806048608E
:101210000846406820F47C1048600846406840F466
:10122000E81048600846006840F08070086000BF21
:101230000C48006800F000700028F9D009484068A8
:1012400020F00300074948600846406840F002006B
:10125000486000BF0348406800F00C000828F9D13E
:101260000CBD00000010024000200240704700004A
:1012700010B51348006840F00100114908600846A5
:101280004068104908400E494860084600680E4909
:1012900008400B4908600846006820F48020086078
:1012A0000846406820F4FE0048604FF41F00886044
:1012B000FFF768FF4FF000600449086010BD0000B0
:1012C000001002400000FFF8FFFFF6FE08ED00E00E
:1012D00021B1028842F00102028004E002884FF648
:1012E000FE731A400280704701894FF6F872114070
:1012F0000181704770B5002400220023058C4FF651
:10130000EF7635400584028C8388048B48F6FF75A0
:101310002C404FF6FF452C400D884FF6FF7606EA2D
:1013200005252C434FF6DF752A400D8906EA051581
:101330002A434D8806EA05152A43154DA84202D0D6
:10134000144DA8421DD14FF67F752A404D894FF6A6
:10135000FF7606EA05152A434FF6BF752A408D88A9
:1013600006EA05152A434FF6FF352B404FF2FF756D
:101370002B408D8906EA85052B43CD8906EA850534
:101380002B4383800483CD880587028470BD0000D1
:10139000002C01400034014070B5002400220023DD
:1013A000058C4FF6FF6635400584028C8388848B5C
:1013B0004FF68F752C404FF6FC752C400D882C4352
:1013C0004FF6FF552A400D894FF6FF7606EA0525B0
:1013D0002A434D8806EA05252A43154DA84202D026
:1013E000144DA8421DD14FF2FF752A404D894FF68A
:1013F000FF7606EA05252A434FF6FF352A408D88F9
:1014000006EA05252A434EF6FF752B404DF6FF757B
:101410002B408D8906EA05152B43CD8906EA051573
:101420002B4383808483CD888587028470BD000030
:10143000002C014000340140002101804180818066
:10144000C180018141818181C1817047818670475E
:101450000187704781877047002202881D4B9842A0
:101460000ED01D4B98420BD0B0F1804F08D01B4BD3
:10147000984205D01A4B984202D01A4B984204D198
:101480004FF68F731A404B881A43174B984207D078
:10149000164B984204D04FF6FF431A40CB881A43AC
:1014A00002808B8883850B8803850A4B98420BD07A
:1014B000094B984208D00E4B984205D00D4B9842EC
:1014C00002D00D4B984201D10B7A0386012383820F
:1014D00070470000002C014000340140000400402F
:1014E00000080040000C00400010004000140040C4
:1014F00000400140004401400048014000BFFEE7B9
:10150000490050EAC12018BF04204A0D18BF40F01E
:10151000010040F2FF72B2EB515F08BF40F00200E1
:10152000012808BF052070472DE9F0414F1E00EB50
:10153000C7010446D1E9000115461E4637F00602F0
:101540000DD02A46334603F0A7F87F1E04EBC703ED
:10155000D3E9002302F098FE37F00602F1D1022F02
:1015600025D0042F13D0062F18BFBDE8F0812A46DE
:10157000334603F091F8D4E90A2302F085FE2A46A7
:10158000334603F089F8D4E9082302F07DFE2A46A9
:10159000334603F081F8D4E9062302F075FE2A46AB
:1015A000334603F079F8D4E9042302F06DFE2A46AD
:1015B000334603F071F8D4E9022302F065FE2A46AF
:1015C000334603F069F8D4E90023BDE8F04102F0A6
:1015D0005BBE012203F00BBF02F056BE0022134691
:1015E0001046114602F000BF024A0020110703F026
:1015F000FEBE000001FDFFFF2DE9FE4F06460F462F
:101600000025684601F06AF9002442E056F82400FB
:1016100057F82410A0EB010ABAF1000F01DB514684
:1016200001E0CAF10001084603F0DCFC83464FF0FC
:101630008F4103F0A5FB80465DF82400002103F0F4
:1016400061FC16D05DF82410404603F099FB8246F9
:101650004FF07E5103F024FE814629F0004A0F48E6
:10166000416A504603F0EAFD12D20120A040054332
:101670000EE00A48C169404603F0E0FC05D3074884
:10168000016A404603F0DAFD02D20120A040054382
:10169000641C032CBADB2846BDE8FE8F945A000870
:1016A0002DE9F04D8D4F21F0004A86B005460C46DD
:1016B000BA452ADBAAEB070028430AD088488245AE
:1016C00001DC1AD1CDB106B02846BDE8F04DFFF7D8
:1016D00080BF844A844B284602F0DEFF07460E4650
:1016E000824A834B2846214602F0D6FF06B03A468E
:1016F0003346BDE8F04D02F0C7BD0120FEF73BFECA
:1017000006B0BDE8F04DFFF769BF7A48824542DA7E
:10171000BAF1795F0BDA2846FFF7F2FE042808BF1A
:10172000FFF762FF284606B02146BDE8F08D2A4645
:101730000B46104602F0B0FF834602466E480E4646
:101740000B4606217844FFF7EFFE5A46334602F077
:10175000A3FF804669488A465A46334604217844A6
:10176000FFF7E2FE5A46334602F096FF00223B4660
:1017700002F08AFD02460B464046514602F034FE16
:101780002A46234602F088FF06B02A462346BDE8D3
:10179000F04D02F079BD284624F0004100223D467C
:1017A0003B4603F077F84FF0FF3203F020FE064689
:1017B000024653480F460B4606217844FFF7B4FE15
:1017C00032463B4602F068FFCDE900014D48324603
:1017D0003B4604217844FFF7A7FE32463B4602F021
:1017E0005BFF00222B4602F04FFD834602913046FC
:1017F000394602F0F1FC804643480D46504517DC5F
:10180000DDE900015A46029B02F0EEFD42462B46FE
:1018100002F042FF42462B4602F036FD012203F061
:10182000E6FD304A304B03F027F9304A304B4CE0AC
:101830004FF0000A52460B46404602F025FDCDE926
:10184000031052462B461046194602F025FF324639
:101850003B4603F01FF8DDE9033202F0C5FD064602
:101860000F46DDE900015A46029B02F0BDFD8346AA
:10187000009101223046394603F0B9FD194A1A4B4E
:1018800003F008F806460F4601224046294603F0B9
:10189000AEFD5A46009B02F0FFFE32463B4603F087
:1018A000EBF806460F4601225046294603F09FFDFD
:1018B0000E4DDFF858802A46434602F0EBFF3246D1
:1018C0003B4602F0E7FF2A46434602F0E3FF002CC6
:1018D000D8BF81F0004106B0BDE8F08D0000F03FB8
:1018E0000000F07F075C143326A6913C182D445469
:1018F000FB21F93F0000E03F704F0000864F0000E1
:10190000FA4E0000104F00003333EF3FFB21E93F58
:101910002DE9F84F04460D4621F00040009173492F
:10192000814211DC7249884201DC06D12CB120468B
:101930002946BDE8F84FFFF74CBE6E48002DCCBFDE
:101940006D496E49BDE8F88F6D49814211DD6D49E1
:101950008142D8BF4FF0FF366DDD20462946FFF7A4
:10196000CFFD042808BFFFF73FFE20462946BDE80B
:10197000F88F6549654F25F00045814233DD6449A4
:10198000814219DD002632464FF080432046294629
:1019900002F07AFC80468A4601222046294603F05E
:1019A00026FD00223B4603F067F84246534602F00C
:1019B0001BFD04460D463EE001260022BA463B468A
:1019C0002046294602F060FC80460F46002253461E
:1019D0002046294603F050F842463B4602F004FDFB
:1019E00004460D4627E04B4981421BDDDFF828A164
:1019F0000226002253462046294602F04DFE0022D0
:101A00003B4602F041FC80460F46002253462046EA
:101A1000294603F031F842463B4602F0E5FC044615
:101A20000D4608E0032622462B4600203B4902F0E3
:101A3000DBFC04460D4622462B461046194602F0B2
:101A40002BFE8B46824602460B4602F025FE0746D9
:101A50000246334888460B4606217844FFF764FD6A
:101A600052465B4602F018FE82462E488B463A46A6
:101A7000434605217844FFF757FD3A46434602F0B6
:101A80000BFE02460B46002E504659460CDA02F079
:101A9000FBFB22462B4602F0FFFD01B022462B46FF
:101AA000BDE8F04F02F0F6BE02F0EEFB22462B46F8
:101AB00002F0F2FD1C4A7A4402EBC603D3E900238C
:101AC00002F0DAFF22462B4602F0D6FF174A7A448C
:101AD00002EBC603D3E9002302F0DCFE009A002AE1
:101AE000B8BF81F00041BDE8F88F0000000010444D
:101AF0000000F07F182D4454FB21F93FFB21F9BF72
:101B00000000DC3F0000203E0000F33F0000F03FFB
:101B10000000E63F008003400000F83F0000F0BFF7
:101B2000124D0000D04C00006E4C0000364C0000FE
:101B30002DE9F04D9446CCF1000423F000464CEA28
:101B40000404524F46EAD4749A46884621F0004273
:101B5000BC4206D8454240EA050442EAD474BC427D
:101B600004D9BDE8F04D6246FFF736BDAAF14055F5
:101B7000A5F17F6555EA0C040BD0022404EAAA748F
:101B8000434DDFF810E144EAD87452EA000B04D068
:101B90000CE0BDE8F04DFFF7BBBE002C14BF012CDC
:101BA000BDE8F08D022C30D0032C32D056EA0C0B5D
:101BB0000AD0BE4220D1BA4209D126F0804622F096
:101BC00080423346114617E000291ADB25E0DFF892
:101BD000C8B0FB44002C04BFDBE90001BDE8F08D78
:101BE000012C02BFDBE9000181F00041BDE8F08D6E
:101BF000022C0AD0032C0CD0BA4212D1B8F1000F3B
:101C00000BDA23482549BDE8F08D28462449BDE874
:101C1000F08D28467146BDE8F08D1D482149BDE88C
:101C2000F08D921B12153C2AC4BF19481D490EDCC9
:101C3000BAF1000FBEBF12F13C0F0020014606DBD7
:101C4000624602F0D1FB21F00041FFF761FE002C5B
:101C500008BFBDE8F08D012C04BF81F00041BDE854
:101C6000F08D114A114B022C07D002F005FF2A46D5
:101C7000BDE8F04D0A4B02F0FFBE02F0FDFE2A4621
:101C8000BDE8F04D064B02F005BE00000000F07FFD
:101C9000182D4454FB2109C0CA4B0000FB21F9BF99
:101CA000FB210940FB21F93F075C143326A6A13C28
:101CB0002DE9F0410446E07800F0C006E07800F03D
:101CC0003F05607800F0010098B1EF102846E91751
:101CD00005EB5171C910A5EBC101491C01F0FF08CA
:101CE0000B48006820B10A484146026838469047D0
:101CF00000BF607800F0080030B10548406818B1B6
:101D0000B011034A516888470020BDE8F081000007
:101D10004400002010B504462046FEF7BDFB10BD70
:101D200000B503461846FEF7C3FB00BD38B50446B0
:101D300064B120208DF8000028208DF801003020AB
:101D40008DF8020038208DF8030004E0A32204215E
:101D50006846FEF789FA6A46042140F69E2002F0A2
:101D60005FF901F049FD38BD3EB5044602208DF80B
:101D70000000CA208DF80100E3208DF80200092040
:101D80008DF803006A460421682002F049F9A32077
:101D90008DF8000004F0400048B1C0208DF801002B
:101DA000C8208DF80200C2208DF8030006E0A320B1
:101DB0008DF801008DF802008DF8030004F4C07066
:101DC00048B1C4208DF80400CC208DF80500C62051
:101DD0008DF8060006E0A3208DF804008DF80500BC
:101DE0008DF80600A3208DF807008DF808008DF807
:101DF00009006A460A2140F6A72002F011F904F012
:101E0000030018B120208DF8000002E0D8208DF8E2
:101E100000006A46012140F6B62002F001F904F004
:101E2000200018B1012000F0ADF802E0002000F021
:101E3000A9F804F4C07008B304F4807060B1B22053
:101E40008DF800008B208DF80100B6208DF802007F
:101E50009B208DF803000BE0B0208DF8000080205F
:101E60008DF80100B4208DF8020090208DF8030059
:101E70006A46042140F6A22002F0D2F804F00100E4
:101E800020B3F8208DF800006A4601214FF40B6062
:101E900002F0C6F8FA21072000F02AFC072000F023
:101EA000F1FB012000F011FC642000F0F1FC4FF484
:101EB000FA7000F000FDC821304800F0A1FB282096
:101EC00000F0BAFB0A2000F0CAFB08E0D8208DF829
:101ED00000006A4601214FF40B6002F0A1F804F003
:101EE000020018B1D9208DF8000002E0D8208DF84A
:101EF00000006A46012140F23D7002F091F804F0C2
:101F0000040018B1012000F069F802E0002000F0A0
:101F100065F804F0100018B10120FFF707FF02E098
:101F20000020FFF703FF44F008001549488101F045
:101F300063FC00201249887304F0400018B1084681
:101F4000807B801D887304F4C07020B10C48807BB6
:101F5000801D0B49887304F0140020B10848807B71
:101F600010300749887304F0030020B10448807BD7
:101F7000001D0349887300203EBD000009E3CA022A
:101F8000440000203EB504466CB10EA1D1E900200A
:101F90008968CDE9002002916A4609214FF49760D3
:101FA00002F03EF83EBD0AA2D2E900109268CDE9E7
:101FB000010200916A4609214FF4976002F030F85F
:101FC000F0E70000B8AAB38DB4980D355D000000AD
:101FD000B8AAAAAAB088C3C5C700000038B504468D
:101FE00064B1C0208DF80000C2208DF80100C4202B
:101FF0008DF80200C6208DF8030004E08B22042136
:102000006846FEF731F96A46042140F6982002F04E
:1020100007F801F0F1FB38BD10B5C8234FF480621A
:10202000024940F6F63001F07BFA10BDBC5A0008B8
:102030002DE9F04F8DB00746884615469B46DDE9F1
:10204000166A0024002030806A49887B524605A920
:1020500001F032FB18B1601E0DB0BDE8F08F65488D
:10206000807A00F01400002867D09DF81400000664
:102070009DF8151040EA01409DF8161040EA012035
:102080009DF81710084328609DF8180000069DF879
:10209000191040EA01409DF81A1040EA01209DF80D
:1020A0001B10084368609DF81C0000069DF81D1079
:1020B00040EA01409DF81E1040EA01209DF81F10E3
:1020C0000843A8609DF8200000069DF8211040EA12
:1020D00001409DF8221040EA01209DF8231008439A
:1020E000E86004F11000C4B2286800140190686828
:1020F00000140290A86800140390E868001404908B
:1021000001984043029901FB0100039901FB010082
:10211000049901FB0109B9F1706F02DBB9F1885F25
:1021200005DD01F069FB00203080401E94E7B6F920
:10213000000040F48070308000BF2E48807A00F0AC
:10214000400020B305A9601C085C095D40EA01203D
:1021500000B2A8F8000005A9E01C095C05AAA01CB3
:10216000105C41EA002000B2A8F8020005A9601D39
:10217000095C201D105C41EA002000B2A8F80400B0
:10218000A01DC4B2B6F9000040F008003080194824
:10219000408900F4C07008B305A9601C085C095DA3
:1021A00040EA012000B2388005A9E01C095C05AABC
:1021B000A01C105C41EA002000B2788005A9601DD7
:1021C000095C201D105C41EA002000B2B880A01D0F
:1021D000C4B2B6F9000040F0700030800548807A43
:1021E00000F0030018B105A90819FFF761FD0020F0
:1021F00032E700004400002070B588B0064601A810
:1022000001F012F8BDF804000021C90341EA50456D
:10221000C4034448007A00F0030056F820000590FB
:102220004048007A00F0040010B105984042059043
:102230003C48007AC0F3C10056F8200006903948A7
:10224000007A00F0200010B1069840420690354810
:10225000007AC0F3811056F82000079031480089B9
:1022600000F4807010B10798404207900598C1179C
:10227000A0FB042301FB043100FB0510810041EAAF
:10228000927005900698C117A0FB042301FB04314E
:1022900000FB0510810041EA927006900798C11773
:1022A000A0FB042301FB043100FB0510810041EA7F
:1022B000927007900598000E8DF808000598000CA4
:1022C0008DF809000598000A8DF80A000598C0B23B
:1022D0008DF80B000698000E8DF80C000698000C87
:1022E0008DF80D000698000A8DF80E000698C0B211
:1022F0008DF80F000798000E8DF810000798000C5D
:102300008DF811000798000A8DF812000798C0B2E6
:102310008DF8130002AA0C214FF4257001F080FE05
:1023200008B070BD4400002030B585B0044616A248
:1023300007CA02AB07C3C82C03DD4FF0FF3005B05E
:1023400030BDC82090FBF4F0401E85B2280A8DF8FD
:102350000000E8B28DF801006A46022140F2162022
:1023600001F05EFE10B14FF0FF30E8E702AA0C2149
:1023700040F6C12001F054FE10B14FF0FF30DEE70F
:10238000044884810020DAE7FEF2ABC4AAF1DFDF63
:10239000BBAFDFDF440000201FB504464848007A89
:1023A00000F0030054F8200001904548007A00F046
:1023B000040010B10198404201904148007AC0F3F6
:1023C000C10054F8200002903D48007A00F020003F
:1023D00010B10298404202903948007AC0F381104F
:1023E00054F8200003903648008900F4807010B142
:1023F0000398404203903349019880FB0101800F0C
:1024000040EA810001902F49029880FB0110820070
:1024100042EA917002902B49039880FB01108200E0
:1024200042EA917003900198000E8DF80000019827
:10243000000C8DF801000198000A8DF80200019847
:10244000C0B28DF803006A4604214FF4747001F0A5
:10245000E7FD18B14FF0FF3004B010BD0298000E38
:102460008DF800000298000C8DF801000298000A17
:102470008DF802000298C0B28DF803006A4604216C
:102480004FF4757001F0CCFD10B14FF0FF30E3E771
:102490000398000E8DF800000398000C8DF80100E1
:1024A0000398000A8DF802000398C0B28DF803006B
:1024B0006A4604214FF4767001F0B2FDCCE70000CB
:1024C0004400002009E3CA0210B586B0044647A0C4
:1024D0000068039046A00068029046A00068019042
:1024E00045A00068009004F0030003A9085C8DF883
:1024F000140003A8C4F3C101405C8DF8150003A8C3
:10250000C4F38111405C8DF8160004F0030002A9A9
:10251000085C8DF8100002A8C4F3C101405C8DF87E
:10252000110002A8C4F38111405C8DF8120005AAC5
:10253000032140F2264001F073FD18B14FF0FF3047
:1025400006B010BD04AA032140F22A4001F068FD44
:1025500010B14FF0FF30F3E7019805900098049018
:1025600004F0040058B19DF8140040F001008DF80B
:1025700014009DF8100040F001008DF8100004F0E8
:10258000200058B19DF8150040F001008DF81500AD
:102590009DF8110040F001008DF8110004F48070E6
:1025A00058B19DF8160040F001008DF816009DF816
:1025B000120040F001008DF8120005AA03214FF42B
:1025C000886001F02DFD10B14FF0FF30B8E704AA8C
:1025D000032140F2314001F023FD10B14FF0FF30F4
:1025E000AEE7064804810020AAE700004CCD6C004D
:1025F0000CC92C00365676002646660044000020A2
:10260000F8B505460E464FF47A7095FBF0F000FBE6
:1026100006F4200E8DF80000200C8DF80100200A31
:102620008DF80200E0B28DF803006A4604214FF4F1
:10263000AE7001F0F5FCF8BD38B50446052094FBFA
:10264000F0F084B220128DF80000E0B28DF80100A5
:102650006A4602214FF4AD7001F0E2FC38BD38B596
:102660000446052094FBF0F084B220128DF800009F
:10267000E0B28DF801006A4602214FF4AC7001F01F
:10268000CFFC38BD38B504460020009004F00100AE
:1026900020B19DF8000040F03000009004F00200EE
:1026A00020B19DF8000040F00C00009004F0040000
:1026B00020B19DF8000040F0030000906A4601211F
:1026C0004FF4A47001F0ACFC38BD38B50446012CC1
:1026D00001DA012402E0042C00DD0424601EC0B2F3
:1026E00000906A46012140F24F1001F099FC38BD7C
:1026F0002DE9FC4706460F4606F0070010B1B7F576
:10270000C86F03DD4FF0FF30BDE8FC87384602F0AC
:1027100081FC8146594902F033FB8046684600F04F
:102720005DFD9DF80000022806D0042816D0082878
:1027300026D0102848D135E04FF08D41404602F0B8
:10274000B1FC814602F02EFC84B24D49404602F0B5
:10275000A9FC814602F026FC85B238E04FF08C419E
:10276000404602F09FFC814602F01CFC84B24549C1
:10277000404602F097FC814602F014FC85B226E048
:102780004FF08B41404602F08DFC814602F00AFC7E
:1027900084B23D49404602F085FC814602F002FCCD
:1027A00085B214E04FF08A41404602F07BFC81463E
:1027B00002F0F8FB84B23549404602F073FC8146D2
:1027C00002F0F0FB85B202E04FF0FF309CE700BF63
:1027D00020128DF80400E0B28DF8050028128DF863
:1027E0000600E8B28DF8070006F00100A0B101AACA
:1027F00002214FF4EA7001F013FC10B14FF0FF30EA
:1028000082E70DF1060202214FF4927001F008FCFC
:1028100010B14FF0FF3077E706F00200A0B101AA37
:1028200002214FF4EC7001F0FBFB10B14FF0FF30D0
:102830006AE70DF1060202214FF4947001F0F0FBFB
:1028400010B14FF0FF305FE706F00400A0B101AA1D
:1028500002214FF4EE7001F0E3FB10B14FF0FF30B6
:1028600052E70DF1060202214FF4967001F0D8FBF9
:1028700010B14FF0FF3047E7002045E70000484324
:10288000000040460000C045000040450000C04434
:1028900038B50446052094FBF0F085B228128DF877
:1028A0000000E8B28DF801006A4602214FF4EF7093
:1028B00001F0B6FB38BD38B50446052094FBF0F0B6
:1028C00085B228128DF80000E8B28DF801006A4642
:1028D00002214FF4ED7001F0A3FB38BD7CB5054635
:1028E00028494968087801AB04220D2100F0DAFB81
:1028F00008B107207CBD9DF80700C0F301109DF8CA
:10290000041001F0E00140EAE1008DF800009DF8BC
:102910000700C0F381009DF8051001F0E00140EAD6
:10292000E1008DF801009DF8070000F003009DF81C
:10293000061001F0E00140EAE1008DF802000024F9
:102940001CE01DF8040018B9002045F8240013E02D
:102950000D4845F8240006E055F824000B4902F024
:10296000A1FB45F824001DF80400401EC0B20DF87C
:1029700004000028F0D100BF601CC4B2032CE0DBCF
:102980000020B7E70C0000207B14AE3E1D5A843FA8
:102990002DE9F04F87B005460C46914601208DF891
:1029A000100000208DF81100FE4A1268917CFD4A4B
:1029B0005268107804AB022200F0ADFB20B14FF05A
:1029C000FF3007B0BDE8F08FC820FFF7A3F9002063
:1029D0008DF81000F34A1268D17BF24A52681078E1
:1029E00004AB012200F097FB10B14FF0FF30E8E795
:1029F000EC4A12685179EB4A5268107804AB012214
:102A000000F089FB10B14FF0FF30DAE7E54A1268B9
:102A1000917CE44A5268107804AB012200F07BFB01
:102A200010B14FF0FF30CCE7DE4A1268D17DDD4AAD
:102A30005268107804AB012200F06DFB10B14FF02A
:102A4000FF30BEE7D74A12681179D64A526810782B
:102A500004AB012200F05FFB10B14FF0FF30B0E794
:102A60000C208DF81000CF4A12681179CD4A5268B7
:102A7000107804AB012200F04EFB10B14FF0FF3094
:102A80009FE70F20FFF746F9C648806A407A8DF825
:102A90001000C44A12689178C24A5268107804AB98
:102AA000012200F038FB10B14FF0FF3089E7BD483C
:102AB000806A007A8DF81000BA4A12685178B94AD3
:102AC0005268107804AB012200F025FB10B14FF0E2
:102AD000FF3076E7B9F1000F07D0B248806A807AFC
:102AE00040F0E0008DF8100004E0AE48806A807A83
:102AF0008DF81000AB4A12689179AA4A5268107892
:102B000004AB012200F007FB10B14FF0FF3058E793
:102B1000B9F1000F07D0A348806AC07A40F0E00006
:102B20008DF8100003E0A048C07A8DF810009D4A8F
:102B30001268D1799B4A5268107804AB012200F0E8
:102B4000EAFA10B14FF0FF303BE7B9F1000F02D0C5
:102B5000C820FFF7DFF840208DF81000914A126876
:102B60001179904A5268107804AB012200F0D3FA30
:102B700010B14FF0FF3024E778208DF81000894A1B
:102B800012685179874A5268107804AB012200F02C
:102B9000C2FA10B14FF0FF3013E783498889FFF77D
:102BA000B9F800208DF810007E4A126851797D4AEC
:102BB0005268107804AB012200F0ADFA10B14FF06A
:102BC000FF30FEE6774A1268917A764A52681078AA
:102BD00004AB022200F066FA10B14FF0FF30F0E6CD
:102BE0009DF811009DF8101040EA012B0C209BFB72
:102BF000F0F0C6B20020A86068602860A060606045
:102C00002060824665E0674A1268D17A654A526858
:102C1000107804AB0C2200F045FA10B14FF0FF30F1
:102C2000CFE69DF811009DF8101040EA012000B297
:102C3000ADF808009DF813009DF8121040EA01203D
:102C400000B2ADF80A009DF815009DF8141040EA96
:102C5000012000B2ADF80C00BDF90810206808444E
:102C60002060BDF90A10606808446060BDF90C106E
:102C7000A0680844A0609DF817009DF8161040EA6F
:102C8000012000B2ADF800009DF819009DF8181061
:102C900040EA012000B2ADF802009DF81B009DF84B
:102CA0001A1040EA012000B2ADF80400BDF900108E
:102CB000286808442860BDF9021068680844686004
:102CC000BDF90410A8680844A8600AF1010000F0EA
:102CD000FF0AB24597DB3448D0F800C02868C11716
:102CE000090441EA10410704624600233846FDF713
:102CF0006BFA32460023CDE90201FDF765FA286040
:102D00002948D0F800C06868C117090441EA104199
:102D10000704624600233846FDF756FA3246002380
:102D2000CDE90201FDF750FA68601F48D0F800C0F5
:102D3000A868C117090441EA10410704624600234C
:102D40003846FDF741FA32460023CDE90201FDF78E
:102D50003BFAA8601448D0F804C02168C8170004E2
:102D600040EA11480F046246002338464146FDF709
:102D70002BFA32460023CDE90201FDF725FA206047
:102D80000948D0F804C06068C117090441EA10413D
:102D90000704624600233846FDF716FA3246002340
:102DA00004E000000C000020945A0008CDE9020164
:102DB000FDF70AFA60601148D0F804C0A068C11796
:102DC000090441EA10410704624600233846FDF732
:102DD000FBF932460023CDE90201FDF7F5F9A060C9
:102DE000A068002804DDA068A0F58030A06003E0A2
:102DF000A06800F58030A0600020E2E5945A000849
:102E00002DE9FC5F06460F4600253D4949680878D4
:102E100001AB03220D2100F045F910B10720BDE8F8
:102E2000FC9F9DF8040000F01F008DF804009DF841
:102E3000050000F01F008DF805009DF8060000F069
:102E40001F008DF80600002456E056F8240057F8BD
:102E50002410A0EB010BBBF1000F01DB594601E090
:102E6000CBF10001084602F0BDF84FF08F41009011
:102E700001F086FF814601A8005D68B3214908681A
:102E800002F0C8F8834659461F4801F079FF804692
:102E900004E01E49404602F005F9804601A8005DA5
:102EA000401EC0B201A908550028F2D1414648464B
:102EB00001F066FF83464FF07E5102F0F1F9824641
:102EC0002AF0004B0F488169584602F0B7F912D238
:102ED0000120A04005430EE00A480169484602F07F
:102EE000ADF805D307484169484602F0A7F902D278
:102EF0000120A0400543641C032CA6DB28468EE776
:102F00000C000020945A000800B04C4554E3853F63
:102F100010B50446204600F00FF80346E01C00F010
:102F20000BF843EAC00083B2A01D00F005F843EAA5
:102F3000801083B2184610BD014691F90020002A86
:102F400001DD00201EE091F90020002A01DA0420B2
:102F500018E091F90120002A01DD012012E091F929
:102F60000120002A01DA05200CE091F90220002A54
:102F700001DD022006E091F90220002A01DA062094
:102F800000E0072070470000FDF7FCFEFDF784FD20
:102F9000FDF74AFCFEF797F838A201210846FDF735
:102FA000D0FF38A201210220FDF7CBFF37A201217B
:102FB0000320FDF7C6FF5FE03648006801F0D6FF4A
:102FC00004460523224607210120FDF787FF3248EA
:102FD000006801F0CBFF04460523224607210220AA
:102FE000FDF77CFF2D48006801F0C0FF0446052373
:102FF000224607210320FDF771FF284A254926486C
:10300000FDF700FB26492548006801F04BFE044609
:10301000FEF75EF81F480168214801F043FE0446B0
:10302000FEF792F800211C48006802F007F908D862
:10303000194801681A4802F033F90446FEF766F8A9
:103040001AE000211448006801F0F8FF14D2124879
:10305000006801F08BFF041E01DB214600E06142A5
:10306000084601F0BFFF05460D49284601F01AFE4B
:103070000446FEF74BF800BF9EE70000526F6C6CF1
:103080003A00000050697463683A00005961773A69
:1030900000000000040000200000002008000020C4
:1030A0000000B4422DE9F04105460E4617461C4685
:1030B0006806050EFDF7B6FC2846FDF781FC304694
:1030C000FDF77EFCFDF7AEFC691CC8B2FDF778FC8D
:1030D0004FF0000808E00020FDF70CFC04F8010B9D
:1030E00008F1010000F0FF08781E4045F3DC0120E4
:1030F000FDF700FC2070FDF7B1FC0020BDE8F08179
:1031000038B504466B46012221466820FFF7CAFF06
:103110009DF8000038BD2DE9F04105460E461746E2
:103120001C466806050EFDF77DFC2846FDF748FCA9
:103130003046FDF745FC4FF0000807E014F8010B9E
:10314000FDF73EFC08F1010000F0FF08B845F5DB93
:10315000FDF784FC0020BDE8F08113B5044601AB07
:10316000012221466820FFF7D6FF1CBD70B504463A
:10317000002624F00104184890F8240008B100202B
:1031800070BD1548807A10B94FF0FF30F8E712484B
:10319000057C807A2040104908740846007CA042D3
:1031A00002D04FF0FF3600E0002614B90A48007D37
:1031B00018B1012000F0C8FF02E0002000F0C4FFB9
:1031C0003CB100F019FB20B1034805744FF0FF300B
:1031D000D6E73046D4E700000C0000200146114835
:1031E000407A30B1012807D0022808D003280CD13A
:1031F00008E0022008700BE00420087008E00820B6
:10320000087005E01020087002E04FF0FF307047B2
:1032100000BF0448C07C18B108784006000E087052
:103220000020F4E70C00002001461348407A30B13A
:10323000012808D002280AD0032810D10BE04FF44F
:10324000804008800EE041F69C7008800AE04FF450
:103250008050088006E04FF40060088002E04FF0E4
:10326000FF30704700BF0448C07C10B10888401090
:1032700008800020F5E700000C000020014602480D
:10328000007C0870002070470C00002001460F48A9
:10329000007A30B1012807D0022809D003280FD1C5
:1032A0000AE0FA2008800EE04FF4FA7008800AE085
:1032B0004FF47A70088006E04FF4FA60088002E06C
:1032C0000020088000BF00BF002070470C000020D5
:1032D00001460E48007A30B1012807D0022808D0F4
:1032E00003280CD108E00A4808600BE00948086090
:1032F00008E00948086005E00848086002E04FF06F
:10330000FF30704700BF0020FBE700000C000020EA
:1033100000000343000083423333034233338341CD
:1033200001461248C07A082817D2DFE800F01704D7
:10333000070A0D101318BC20088013E062200880D3
:1033400010E02A2008800DE0142008800AE00A20FE
:10335000088007E00520088004E000BF00BF0020CF
:10336000088000BF00BF0020704700000C00002054
:103370000146064890F8240010B14FF0FF30704726
:103380000248C08908800020F9E700000C000020F6
:103390001CB580208DF80000604A1268917C5F4A5D
:1033A000526810786B460122FFF7B5FE10B14FF05E
:1033B000FF301CBD6420FEF7ADFC00208DF800003E
:1033C000564A1268917C554A526810786B46012221
:1033D000FFF7A1FE10B14FF0FF30EAE74F4A126845
:1033E000917D4E4A526810786B460622FFF75AFECE
:1033F00010B14FF0FF30DCE79DF80500C007400F2B
:103400009DF8031001F0010140EA41009DF8011010
:1034100001F0010140EA010474B1012C03D1012142
:103420003E48C17427E0022C03D100213B48C174FF
:1034300021E04FF0FF30BCE7384A1268D178374AB4
:10344000526810786B460122FFF72CFE10B14FF046
:10345000FF30AEE79DF8000000F00F0414B94FF004
:10346000FF30A6E7042C03D101212C48C17402E0EF
:1034700000212A48C174FF2128488172FF20274972
:103480000872FF2125484172C1724FF6FF71C18158
:10349000FF21017481740121017380F82210002141
:1034A00080F823104175017516300160416081601C
:1034B000163880F8241080F82510C1844FF4FA6083
:1034C00000F03CFC10B14FF0FF3072E7022000F03A
:1034D00005FB10B14FF0FF306BE72A2000F0A8FC8D
:1034E00010B14FF0FF3064E7322000F0E3FC10B180
:1034F0004FF0FF305DE70020FFF738FE10B14FF0CE
:10350000FF3056E7002000F02BFB10B14FF0FF30EA
:103510004FE7002000F01CFD00204AE70C000020CF
:103520002DE9F04385B005460E4690469946294858
:1035300090F8250020B14FF0FF3005B0BDE8F083D2
:1035400016B94FF0FF30F8E7002423E0281B1028BD
:1035500001DD102000E0281B87B2321939462046D1
:1035600000F05EFD10B14FF0FF30E6E701AA3946EA
:10357000204600F001F910B14FF0FF30DDE73019BF
:103580003A4601A9FCF744FE10B16FF00100D4E700
:10359000E01984B2AC42D9DB4FEA28208DF8000054
:1035A00008F0FF008DF801000A4A1268917E094A6E
:1035B000526810786B460222FFF7ADFD10B14FF054
:1035C000FF30BAE70121034880F82510A0F82690C3
:1035D0000020B2E70C00002038B50446282C02DD9C
:1035E0004FF0FF3038BDDCB9002000F0EBFB0020CD
:1035F0008DF8000007208DF801002E4A1268917C9A
:103600002C4A526810786B460222FFF784FD10B1F5
:103610004FF0FF30E6E70021264801750020E1E782
:10362000012000F0CFFB20208DF80000012C06D1F6
:1036300000208DF80100052000F0FAFB17E0052CB2
:1036400006DC01208DF80100052000F0F1FB0EE002
:10365000142C06DC02208DF801000A2000F0E8FBA3
:1036600005E003208DF80100142000F0E1FB9DF837
:103670000100072101EB8010C0B28DF801000D4A56
:103680001268917C0B4A526810786B460222FFF751
:1036900042FD10B14FF0FF30A4E7082105488172C8
:1036A00000210173012101750020FFF75FFD00205B
:1036B00098E700000C000020F8B504460F461646B7
:1036C0002C4890F8240010B94FF0FF30F8BD29487D
:1036D000807A10B94FF0FF30F8E7264A1268917AE5
:1036E000244A526810786B460222FFF7DBFC10B1C7
:1036F0004FF0FF30EAE79DF801009DF8001040EA26
:103700000125A54203DA00203070401EDEE719488B
:1037100040684088B5EB600F17DD164A1268517C8F
:10372000144A526810786B460122FFF7BBFC10B1B7
:103730004FF0FF30CAE79DF8000000F0100020B104
:1037400000F05AF86FF00100C0E7E2B2094B1B68C5
:10375000D97A084B5B6818783B46FFF7A3FC10B199
:103760004FF0FF30B2E795FBF4F0401E30700020C0
:10377000ACE700000C000020F8B504460D461646E4
:1037800016B94FF0FF30F8BD1A48807A10B94FF0E3
:10379000FF30F8E720128DF80000E0B28DF801004C
:1037A0009DF801002844134949684989884202DD8F
:1037B0004FF0FF30E7E70F4A1268117E0D4A52685A
:1037C00010786B460222FFF7A6FC10B14FF0FF30D5
:1037D000D9E7EAB2074B1B68597D064B5B6818783E
:1037E0003346FFF75FFC10B14FF0FF30CBE700200E
:1037F000C9E700000C00002008B57048807A10B9B5
:103800004FF0FF3008BD002000906C4A1268D17B59
:103810006A4A526810786B460122FFF77CFC10B1AF
:103820004FF0FF30EEE7654A12685179634A5268FB
:1038300010786B460122FFF76EFC10B14FF0FF309D
:10384000E0E75E4A126811795C4A526810786B466C
:103850000122FFF760FC10B14FF0FF30D2E757486C
:1038600090F82400002853D00C200090534A12688E
:103870001179524A526810786B460122FFF74BFCCF
:1038800010B14FF0FF30BDE73220FEF743FAC02001
:1038900000904A48807A00F0010020B19DF80000B5
:1038A00040F020000090454A12681179434A52685E
:1038B00010786B460122FFF72EFC10B14FF0FF305D
:1038C000A0E73E48407C10B10220009001E00020BB
:1038D00000903A4A1268D17B384A526810786B4699
:1038E0000122FFF718FC10B14FF0FF308AE70020EB
:1038F0000090324A12685179304A526810786B460B
:103900000122FFF708FC002855D04FF0FF3079E77F
:1039100004200090294A12681179284A52681078C8
:103920006B460122FFF7F7FB10B14FF0FF3069E75C
:103930002248807C20B92148807A00F0010010B92B
:103940004020009001E0602000901C4A126811792C
:103950001A4A526810786B460122FFF7DCFB10B15F
:103960004FF0FF304EE73220FEF7D4F91348407C89
:1039700010B10120009001E0002000900F4A126871
:10398000D17B0E4A526810786B460122FFF7C3FBC9
:1039900010B14FF0FF3035E7084A12685179074AF5
:1039A00052681078054B10330122FFF7B4FB10B1B9
:1039B0004FF0FF3026E7002024E700000C00002035
:1039C0002DE9F04F8DB083460F4602200C904248FF
:1039D00090F8240020B1002000F068F9012600E0F2
:1039E000002603A8FFF752FC05A8FFF7F7FB01A884
:1039F000FFF796FC02A8FFF7BBFC374890F80AA037
:103A000004A8FFF73BFC002407E000223946584693
:103A1000FEF7BEFF00B902E0641C022CF5DB00BF1C
:103A2000022C01D1002528E0002407E0012206A98C
:103A300009A8FEF7ADFF00B902E0641C022CF5DB1B
:103A400000BF022C01D1002517E006A93846FDF77A
:103A5000D3FD00F0FF0809A95846FFF7D1F900F09F
:103A6000FF090025B9F1000F01D145F00105B8F1BA
:103A7000000F01D145F0020500BFFF201649087272
:103A8000FF2115484172C1724FF6FF71C181FF21BC
:103A90008172017401210173BDF80C0000F04EF930
:103AA0009DF8140000F01AF8BDF8040000F0C0F909
:103AB000BDF8080000F0FEF9504600F049FA9DF804
:103AC0001000FFF753FB16B1012000F0EFF8284675
:103AD0000DB0BDE8F08F00000C00002038B50446A2
:103AE0001E48807A10B94FF0FF3038BD022C06D046
:103AF000042C07D0082C08D0102C0CD108E0002092
:103B000000900BE00820009008E01020009005E0F5
:103B10001820009002E04FF0FF30E6E700BF0F48AA
:103B2000407A9DF80010B0EBE10F01D10020DCE7F6
:103B30000A4A1268D179094A526810786B46012204
:103B4000FFF7E9FA10B14FF0FF30CEE79DF8000023
:103B5000C110024841720020C7E700000C0000209D
:103B600038B504465048807CA04201D1002038BDC1
:103B7000002C46D04C4A126811794B4A5268107892
:103B80006B460122FFF78EFA10B14FF0FF30EEE7DF
:103B90009DF8000020F020000090434A126811793F
:103BA000414A526810786B460122FFF7B4FA10B10F
:103BB0004FF0FF30DBE70320FEF7ACF80220009067
:103BC000394890F8220020B19DF8000040F08000B4
:103BD0000090354890F8230020B19DF8000040F097
:103BE00030000090304A1268117D2F4A52681078D8
:103BF0006B460122FFF78FFA002851D04FF0FF30BB
:103C0000B5E7294A12681179274A526810786B463D
:103C10000122FFF747FA10B14FF0FF30A7E7224823
:103C2000807A00F0010028B19DF8000040F02000EB
:103C3000009004E09DF8000020F0200000901A4A57
:103C400012681179184A526810786B460122FFF702
:103C500062FA10B14FF0FF3089E70320FEF75AF8FF
:103C6000114890F8220010B18020009001E000205F
:103C700000900D4890F8230020B19DF8000040F01E
:103C800030000090084A1268117D074A5268107887
:103C90006B460122FFF73FFA10B14FF0FF3066E7A5
:103CA00001488474002062E70C00002038B5044607
:103CB000214890F82400A04201D1002038BD24B34F
:103CC0001D4890F8250010B94FF0FF30F6E70020AE
:103CD00000F03AFA0020FFF743FF1749C88C00F0C4
:103CE000E9F8002000901449496808786B460122E1
:103CF0002321FFF710FA01210F4880F8241001203A
:103D000000F022FAFFF778FD13E0002000F01CFA23
:103D10000948007C00900849496808786B460122F0
:103D20002321FFF7F8F90021034880F82410FFF75A
:103D300063FD0020C2E700000C00002038B50446F7
:103D40001F48807A10B94FF0FF3038BDFA2C09D0E7
:103D5000B4F5FA7F09D0B4F57A7F09D0B4F5FA6FDB
:103D60000CD108E0002000900BE00820009008E053
:103D70001020009005E01820009002E04FF0FF3086
:103D8000E3E700BF0E48007A9DF80010B0EBE10FAA
:103D900001D10020D9E70A4A12689179084A52688D
:103DA00010786B460122FFF7B6F910B14FF0FF30E3
:103DB000CBE79DF80000C010014908720020C4E75D
:103DC0000C00002038B50446184890F82300A042A3
:103DD00001D1002038BD14B13020009001E0002056
:103DE00000901248807C20B19DF8000040F0020055
:103DF00000900E4890F8220020B19DF8000040F09D
:103E000080000090094A1268117D084A52681078B3
:103E10006B460122FFF77FF910B14FF0FF30D9E771
:103E2000024880F823400020D4E700000C00002066
:103E300038B504461E48807A10B94FF0FF3038BDBF
:103E4000BC2C02DB0120009015E0622C02DB02207A
:103E5000009010E02A2C02DB032000900BE0142CD1
:103E600002DB0420009006E00A2C02DB0520009013
:103E700001E0062000900E48C07A9DF800108842AC
:103E800001D10020DBE70A4A12689178084A52689B
:103E900010786B460122FFF73EF910B14FF0FF306A
:103EA000CDE79DF800100248C1720020C7E700006E
:103EB0000C00002038B504462448807A10B94FF031
:103EC000FF3038BD214890F8240010B14FF0FF308A
:103ED000F7E71E48007D50B134B1282C04DCE0B275
:103EE000FFF77AFB0020ECE70020FFF775FB042CBE
:103EF00001DA042404E0B4F57A7F01DD4FF47A742A
:103F00004FF47A7090FBF4F0401EC0B200900F4A5C
:103F1000126851780D4A526810786B460122FFF7FB
:103F2000FAF810B14FF0FF30CBE79DF80000401CCD
:103F30004FF47A7191FBF0F081B20448C1810146DF
:103F4000C9894810FFF774FF0020BAE70C00002071
:103F500038B5044604F0700010B10120009005E06F
:103F600014B10020009001E0402000902B4A12681C
:103F7000917C2A4A526810786B460122FFF7CBF8F1
:103F800020B1002125488172481E38BD9DF80000EF
:103F900020F04001214801730020009004F040000F
:103FA00020B99DF8000040F00400009004F02000CB
:103FB00020B99DF8000040F00200009004F01000CD
:103FC00020B99DF8000040F00100009004F00800C6
:103FD00020B99DF8000040F0380000900F4A1268A8
:103FE000D17C0E4A526810786B460122FFF793F895
:103FF00020B1002109488172481EC6E724B1082C6F
:1040000002D00020FFF7DEFE044884720021017513
:104010003220FDF77FFE0020B7E700000C000020F3
:10402000F8B504460D46164616B94FF0FF30F8BDF8
:104030001A48807A10B94FF0FF30F8E720128DF857
:104040000000E0B28DF801009DF8010028441349FA
:1040500049684989884202DD4FF0FF30E7E70F4A9F
:104060001268117E0D4A526810786B460222FFF7E3
:1040700052F810B14FF0FF30D9E7EAB2074B1B6896
:10408000597D064B5B6818783346FFF744F810B14A
:104090004FF0FF30CBE70020C9E700000C00002004
:1040A00010B502460120002301E050435B1C8B4207
:1040B000FBD310BD70B588B002A905A8FFF780FC3E
:1040C0000446072C3ED101A8FFF702F9059800F03D
:1040D00089FF0646019900F0E5FF054600F046FF1E
:1040E0000590069800F07EFF0646019900F0DAFF81
:1040F000054600F03BFF0690079800F073FF064668
:10410000019900F0CFFF054600F030FF079005A8A9
:10411000FEF742F96846FFF787F8BDF800100298ED
:1041200048430290BDF80010039848430390BDF83F
:10413000001004984843049002A8FEF75DF80020A0
:1041400008B070BD0120FBE738B50446214890F85F
:104150002400C0B114B10220009001E000200090C2
:104160001C4A1268D17B1B4A526810786B460122A8
:10417000FEF7D1FF10B14FF0FF3038BD9DF80010B1
:104180001448417423E01348807A10B94FF0FF308F
:10419000F3E724B10F48407C08B10020EDE714B1EB
:1041A0000120009001E0002000900A4A1268D17BB3
:1041B000084A526810786B460122FEF7ACFF10B136
:1041C0004FF0FF30D9E79DF80010024841740020FD
:1041D000D3E700000C0000202DE9F04106460F4611
:1041E00000F064FB041E0D4618BF0120284320F098
:1041F0000040C0F17F6000F1E040C00F0ED0301CE5
:1042000018BF0120384320F00040C0F17F6000F16A
:10421000E040C00F04BF0120FCF7ADF8204629465E
:10422000BDE8F08121F00042A2F16052B2F5801F9A
:1042300001F0004328BFD2F17F6C0BD95FEA001C6C
:1042400043EAC20242EB507018BF704728BF20F00B
:1042500001007047B2F5801FBCBF184670474FEA97
:10426000410C1CF5001F02D2084600F0E2BF70B5F9
:1042700000F0BCFA00000089FFF7F6BF4FF00040E5
:10428000A0F580007047000010B591EA030F48BF09
:1042900083F0004300F1F883841A71EB030C05D21C
:1042A000121943EB0C03001B61EB0C01DFF824E156
:1042B0004FEA1154A4EB135C1EEA430F18BF9EEAA9
:1042C000445F73D023EA0E03DCF1200E21EA04518F
:1042D00043F4801332D322FA0CFE10EB0E0023FAC3
:1042E0000CFE41EB0E01CCF1200E03FA0EFE10EB9A
:1042F0000E0051F10001B1F5801FCCF1200E32D239
:1043000001EB045112FA0EF2BDE8104058BF70479D
:10431000401C38BF5FEA420218BF7047002814BF34
:1043200020F0010041F100014FEA410313F5001FA5
:1043300038BF7047A1F1C04100F0A6BA012A43EB93
:104340000302ACF1200CDCF11F0E32BF4FF0000E67
:1043500023FA0CF310EB030041EB0451B4EB115FB3
:10436000D0D0A1EB045101F5801149085FEA30007B
:1043700001EB04510ED350F1000038BF12FA0EFECB
:1043800008D1BDE81040C9E7401C38BF5FEA4202CF
:10439000CAD1C3E7BDE810404FEA410313F5001F3F
:1043A00038BF7047A1F1C04100F06EBA9EEA445F89
:1043B00008D011EA5E0FBDE8104004BF01F00041D3
:1043C00000207047BDE8104070B500F00FFA00BF44
:1043D00064FBBE3E0000E0FF02494FF0000000F029
:1043E000D4BF00BF0000F87F2DE9C04130B4DFF832
:1043F000A0C23CEA111418BF3CEA131400F0EC8090
:1044000081EA03051CEA111444EAD57418BF1CEABA
:10441000131500F0C780A4EB05044FF0004545EAF2
:10442000C12145EAC32341EA505143EA525304F102
:104430007F74994204F500344FEAC0204FEAC2224B
:1044400008BF904200F09C804FEA13650FF24016BF
:10445000765D4FEA134506FB05F7C7F1807706FB4B
:1044600007F74FEAD737A7FB03687642C8F58038CD
:10447000A7FB06CE38BFA8F1010807FB08E64FF0FE
:10448000000EA6FB028CE6FB03CEDCF1000CCEF1A5
:10449000004E38BFAEF1010EA6FB0C584FF00007DE
:1044A0004FF00005E6FB0E87A1FB08C6A0FB07CE78
:1044B00016EB0E0645F10005E1FB076515F1E04E30
:1044C0007EBFA4F580345FEA46066D4116F1800791
:1044D00045F100054FEA17274FEA066647EA0567E8
:1044E000A6F1DE46B6F1805F4FEA15251FD93846A2
:1044F00024F0010C05EBC471BCF1FE6F01EB0C1153
:1045000002D8F0BCBDE8008124425CBF01F5801EEA
:104510009EEAC47F02D4F0BCBDE80081244238D4B6
:10452000F0BCA1F1C041BDE8004100F0ADB94FEAD7
:10453000D22242EA43524FEAD323A7FB02864FEA34
:10454000D02040EA415007FB03661EEA0E0F4FEAF7
:10455000D12105FB026658BFA6EB0056B6EB00560C
:104560004FEA520E4EEAC37E18EB0E0E56EB530E78
:10457000BDD518EB02085E417F1C55F10005B6E77A
:104580004FF480154FF000074FF000064FF0000881
:10459000ADE7F0BC4FF0000001F1C04101F0004177
:1045A000BDE8008111EA0C1F0CEA131500D00CE0E5
:1045B00013EA0C1F00F025804FF00000F0BC81EAE8
:1045C000030101F00041BDE80081F0BCBDE80041FD
:1045D00081EA030100F058B9F0BCBDE8004170B5B4
:1045E00000F004F9097EFC3E00F007B881EA0301FF
:1045F0004FF0000001F00041704781EA030100F034
:1046000043B9F0BCBDE800414FF0000021497047BC
:10461000FFFDFBF9F7F5F4F2F0EEEDEBE9E8E6E487
:10462000E3E1E0DEDDDBDAD8D7D5D4D3D1D0CFCD0E
:10463000CCCBCAC8C7C6C5C4C2C1C0BFBEBDBCBB47
:10464000BAB9B8B7B6B5B4B3B2B1B0AFAEADACAB42
:10465000AAA9A8A8A7A6A5A4A3A3A2A1A09F9F9E1C
:104660009D9C9C9B9A9999989797969595949393CE
:10467000929191908F8F8E8E8D8C8C8B8B8A898965
:1046800088888787868585848483838282818180E8
:104690000000FF070000F87FDFF848C170B51CEA92
:1046A000111E1EBF1CEA13159EEA0C0F95EA0C0F93
:1046B00000F06F8081EA030423EA4C134EEAD47EB3
:1046C00021EA4C1141F4801143F48013AE44A1FB64
:1046D000024CA0FB0365AEF17F7E361955EB0C054D
:1046E000A1FB034C4CF10003A0FB021C16EB0C06D3
:1046F000654153F10003094218BF46F0010613F467
:10470000007F0BD14FEA03314FEA0530340341EA11
:10471000155140EA16506FF003020AE04FEAC32138
:104720004FEAC520F40241EA555140EA56506FF075
:10473000020202EB2E4201EB025585EACE710AD04D
:104740005FEA440C18BF24F0004450F1000041F12E
:10475000000120EAD47040F2FE7C624500D270BDB8
:10476000A84214BF4FF080444FF04044002E08BFD1
:104770000024BEF1806FA8BFA1F1C041BDE8704028
:1047800080F282804FF0000001F1C04101F0004151
:1047900070479EEA0C0F0CEA131518BF95EA0C0F30
:1047A00006D04FF0000081EA030E0EF0004170BD0C
:1047B00000F01CF88900013E00F007B800F009B8CD
:1047C0004FEA430C5FEA5C5C08D081EA030100F029
:1047D0005BB84FEA410C5FEA5C5CF6D14FF0000039
:1047E000014970470000FF070000F87F0EF1020E3C
:1047F0002EF0030E5EF8046B364205D4012A43EB1B
:10480000030515F5001F12D8012841EB010C1CF51A
:10481000001F0CD80ED14FEAD17C15F5001F0CEB10
:104820004C0C0CF1020C08BF4CEBD37C04E04FF0B5
:10483000080C01E04FEAD37C0CEB4C0526FA05F698
:1048400006F00706B6F1040C06D20EEB860CBDE8A6
:1048500070404CF0010C6047DFE80CF0090B0202DD
:104860004FF000414FF00000A1F5002170BD194646
:104870001046012851EB010418BFD4F5001484BF81
:10488000002001F0004170BD0808A0F500114FEABA
:104890003101704791EA030F10B581F000413FF5F7
:1048A000FBAC83F0004300F0EFB800002DE9F041CD
:1048B00001F5801CBCF5001FC0F2C3804FEA115CFB
:1048C00021EA0C510CF1FD0C41F480115FEA5C0C03
:1048D0000CF5C07C01D3400049413DA4890241EA66
:1048E000905187028E0E0A0CA45D04FB04F602FBB5
:1048F00006F6C6F14046A4FB0662F60D46EA4226DD
:1049000006FB06F4A4FB01235242C3F1404338BF27
:104910005B1EA6FB02420024E6FB0324D20B42EA04
:104920004446A6FB0623A1FB02E2A3FB07E4A4186E
:104930004FF0000252F10002E3FB01426442C2F177
:10494000404E38BFAEF1010EA6FB04234FF000022B
:10495000E6FB0E32A2FB03464FF00004B61954F1F9
:104960000004E2FB0264A1FB06E6A4FB07E816EBE9
:1049700008064FF0000858F10008E4FB0168764291
:10498000C8F1405838BFA8F10108A2FB06E4A3FB18
:1049900008E52D194FF0000454F10004E2FB08541F
:1049A000A1FB05E6A7FB04E818EB06084FF000069C
:1049B00056F10006E1FB048618F1200556F10006C9
:1049C000A809A8F11B08B10908F03F08B8F10A0FBF
:1049D00040EA86601CD901EB0C51BDE8F08100BFB4
:1049E000FCF5EEE8E2DDD8D3CFCBC7C3C0BDB9B686
:1049F000B4B1AEACA9A7A5A3A19F9D9B9A9896958B
:104A00009392908F8D8C8B89888786858483828111
:104A1000A0FB006800FB01F208EB4208B8EB872816
:104A200007D5341858EB0104D5D5401C51F10001CD
:104A3000D1E7341A78EB0104CDD4401E71F10001A6
:104A4000C9E75FEA4C0C5FEA9C5C0DD105D34FF0DF
:104A5000000001F00041BDE8F081BDE8F04170B513
:104A6000FFF7C4FE6DDBFFBEBDE8F0414FF0000074
:104A7000004970470000F87F10B591EA030F48BF66
:104A800083F000433FF508AC841A71EB030C07D2A6
:104A900012198CF0004C43EB0C03001B61EB0C0172
:104AA000DFF8A4E14FEA1154A4EB135C1EEA430FB4
:104AB00018BF9EEA445F00F0B08023EA6E035242C2
:104AC00021EA0451C3EB6E0338BF5B1EDCF1200EFC
:104AD00025D322FA0CFE10EB0E0043FA0CFE41EB3C
:104AE0000E01CCF1200E03FA0EFE10EB0E0051F178
:104AF0000001CCF1200E29D412FA0EF201EB045180
:104B0000BDE8104058BF7047401C1CBFB2F1004FB9
:104B1000704700280CBF491C20F00100704712EBC1
:104B2000020E43EB030218BF4FF0010E4EEA4202A1
:104B3000ACF1200CDCF11E0E54D943FA0CFE10EB44
:104B40000E0051F1FF31CCF11E0ED5D50EF1010E44
:104B500012FA0EFE404141EB010101EB445C5FEAB9
:104B60005C5C10D910EBDE7001EB045138BFBEF174
:104B7000004FBDE8104018BF704700280CBF491C0B
:104B800020F00100704730D24FEAD42C11F500110B
:104B900024F400641BD0B1FA81F20B3AA41AA41ECB
:104BA000D2F12003914030FA03F31943904001EB16
:104BB000CC71002C01EB0451BDE81040A8BF704738
:104BC00001F1C0414FF0000001F000417047B0FA20
:104BD00080F310FA03F100D110BDE41A173C480528
:104BE000C90AE4E701EB045110BD491001EB04517F
:104BF000BDE810404FEA300002E04FF0000170477E
:104C00004A0008BF0042F8D0B2F5001F28BF704725
:104C100001F000414FF0000070479EEA445F07D06A
:104C200011EA5E0FBDE8104004BF0021002070476C
:104C3000BDE8104070B5FFF7D9FD00BF40DFF63E7C
:104C400083F00041104670470000E0FF43004FEA48
:104C5000D30C4FEA3C0C43401FBF40070CF160519E
:104C600013F0FE4F70471CF0006F03D100200CF0D2
:104C7000004170470CF0004343EA507010B540EA21
:104C8000CC0000F090FA00BF000000924FEA000153
:104C9000FFF7FABD4FF000414FF00000A1F50021F1
:104CA0007047000090EA010F48BF81F0004100F119
:104CB000FE82421A3CBF801A89184FEAD0524FF048
:104CC0007F4C1CEA410FA2EBD15318BF9CEA026F44
:104CD00000F03B804FF0004C4CEA00204CEA0121F0
:104CE00021FA03FC10EB0C0C1ED202F1FF325FEA3A
:104CF0001C2040EBC25038BF70471CF07F0F4FEABA
:104D0000400C18BFBCF17F4F38BF7047C3F1200380
:104D1000994008BF20F00100BCF17F4F38BF7047B9
:104D2000A0F1C04000F085BA4FEA3C00000A40EB19
:104D3000C25028BF1CF0FF0F4FEA400CE6D018BF4E
:104D4000BCF17F4F38BF7047EAE79CEA026F05D09D
:104D500010EA5C0F08BF00F00040704710B500F08B
:104D600022FA00BF64FBBE3E401058BFC0F1404075
:104D7000491058BFC1F140418142EFF300807047B4
:104D80004FF47F0C1CEAD0121EBF1CEAD11392EA2A
:104D90000C0F93EA0C0F00F0858090EA010F48BFDA
:104DA00042F4807240F4000C41F400002CF07F418A
:104DB00020F07F4000B58142A2EB03020FF2081CF5
:104DC000ACEB504EC0F100009EF800E04FEA4E0EF2
:104DD00000FB0EFC38BF49004FEA2C1C02F5FA021A
:104DE0000CFB0EF34FEACE1E4FEA112C4FEAC12105
:104DF0000EEB635E42EB22420EFB0CFC4FEA1C53AF
:104E000000FB03114FEA112C4FEA01310EFB0CFCA1
:104E10004FEADC4C00FB0C11C14228BF09184CEBD7
:104E200003335DF804EB10EB410143EBC250B2F5E4
:104E30007C0F38BF704729D512F0F00F1CBF00F16E
:104E4000C04000F0004070470081828384858687DF
:104E500088898B8C8D8E8F919293959697999A9C39
:104E60009D9FA0A2A3A5A7A8AAACAEB0B2B3B5B7A8
:104E7000B9BCBEC0C2C5C7C9CCCED1D4D7D9DCDF7E
:104E8000E2E6E9ECF0F3F7FAFE0000004FEA400C2E
:104E90000CF1807CBCF17E4F28BF7047B0F1C04060
:104EA00000F0C7B990EA010F0CEAD11348BF42F4F1
:104EB0008072624538BF634507D213F47F0F16D066
:104EC00080EA010000F00040704710B500F06BF977
:104ED000097EFC3E00F005B880EA010000F00040C9
:104EE000704780EA010000F0004000F0A2B912F41F
:104EF0007F0F04BF0248704780EA010000F099B9B3
:104F00000000C07F50EA010C00F113801CF5000F77
:104F100058BFBCF5000F01D48842704707D710F581
:104F2000000F58BF11F5000F15D488427047894211
:104F300070471CF5000F04D5BCF5000FF7D5814272
:104F400070474FF0807C1CEB400F38BF1CEB410FCB
:104F500001D28142704710B500F025F99224490032
:104F60004FF000504FF08051FFF7FEBE41000B0E96
:104F7000D3F19E0208D950F400034FEA032323FA29
:104F800002F048BF4042704710B500F00CF900BF76
:104F900049922480002070476FF0004282EA20008E
:104FA00070470000C10DD1F19E0206DB4FEA0023DD
:104FB00043F0004323FA02F07047004207D54FEA5E
:104FC0004001B1F1FE4F02D24FF00000704710B522
:104FD00000F0E9F849922480002070476FEA200031
:104FE0007047000010F0004148BF4042B0FA80F323
:104FF00010FA03F2C3F19D030BD051EAC35101EB48
:105000001220530638BF704700F1010008BF20F09E
:1050100001007047B0FA80F310FA03F2C3F19D0368
:105020000AD0D90501EB1220530638BF704700F1B2
:10503000010008BF20F001007047000050EA010C99
:1050400000F113801CF5000F58BFBCF5000F01D410
:105050008842704707D710F5000F58BF11F5000FB1
:1050600015D488427047894270471CF5000F04D55B
:10507000BCF5000FF7D5814270474FF0807C1CEBE8
:10508000400F38BF1CEB410F01D28142704710B571
:1050900000F089F8922449004FF000504FF0805101
:1050A000FFF762BE4FF47F0C1CEAD0121EBF1CEA51
:1050B000D11392EA0C0F93EA0C0F00F0478090EAAC
:1050C000010F48BF42F480724FF0004C4CEA0020C0
:1050D0004CEA012102EB0302A0FB0113A2F500023E
:1050E000002918BF43F001035B0028BF4FEA3303D8
:1050F00042EB22425FEA132C4CEBC2502EBFBCEBBA
:10510000436FB2F57C0F70474FEA036CBCF1004F60
:1051100008BF20F00100B2F57C0F38BF70470BD5F7
:1051200082F0FF0212F5803FC8BF704700F1C04017
:10513000D8BF00F00040704700F5000C5FEA4C0C4F
:1051400048BF7047B0F1C04000F073B890EA010F5B
:105150000CEAD11348BF42F48072624538BF634500
:1051600004D280EA010000F00040704710B500F062
:105170001AF800BF8900013E00F007B800F009B836
:105180005FEA410C5FEA1C6C08D080EA010000F085
:1051900050B85FEA400C5FEA1C6CF6D14FF000405B
:1051A000A0F5800070470EF1020E2EF0030E5EF89F
:1051B000044B244204D44FEA4102B2F17F4F11D88C
:1051C0004FEA4003B3F17F4F0CD80ED14FEAD07CA9
:1051D000B2F17F4F0CEB4C0C0CF1020C08BF4CEB06
:1051E000D17C04E04FF0080C01E04FEAD17C0CEBDD
:1051F0004C0324FA03F404F00704B4F1040C06D2BF
:105200000EEB840CBDE810404CF0010C6047DFE869
:105210000CF0070802024FF00040A0F5800010BD1E
:105220000846420018BFD2F1807288BF00F00040EB
:1052300010BDFF2141EAD050C005704751EA000C73
:1052400000F113801CF5000F58BFBCF5000F01D40E
:105250008142704707D711F5000F58BF10F5000FB6
:1052600015D481427047894270471CF5000F04D560
:10527000BCF5000FF7D5884270474FF0807C1CEBDF
:10528000410F38BF1CEB400F01D28842704780EAC3
:10529000010081EA000180EA0100FFF7F8BE00008A
:1052A00090EA010F48BF81F000413FF502AD421A7C
:1052B00004D882F00042A0EB020011444FEAD05221
:1052C0004FF07F4C1CEA410FA2EBD15318BF9CEA70
:1052D000026F4AD04FF0004C4CEA00204CEA01210A
:1052E00021FA03FCB0EB0C0C0FD412F0FE0F36D0F9
:1052F0005FEA4C001DD5001240EBC25038BF70472A
:105300001CF03F0F18BF70470BE0A2F101025FEAEB
:105310001C2040EBC25038BF70471CF07F0F18BFF5
:105320007047C3F12003994014BF401E20F00100D4
:10533000704780084FEA122308BF7047B0FA80FC1C
:10534000A2EB0C02CCF1280C60FA0CF093EA122FBD
:1053500004BF00EBC25070474FEAC3707047130A96
:105360005FEADC1008BF7047F6E79CEA026F04D0E2
:1053700010EA5C0F08BF0020704710B5FFF713FF5D
:1053800040DFF63E81F0004070470CF00F03092B20
:1053900008BF082000F059800A2B0BD0082B18BF3B
:1053A000704708BF1CF0400F0AD04FF000004FF0CC
:1053B000000170471CF0400F18BF4FF000407047CD
:1053C0001CF0100F08D020F0704300F07F4242EA3A
:1053D000D3014FEA4370704700F0604021F07F42F4
:1053E00042EA000201F07F4040EA727070474FF0DD
:1053F000FF0C4CF4E06C1CEA11531CBF9CEA030C3C
:105400009445C2BFDA4201EB02517047002B0DD028
:10541000BCF1000F0FD0002A01F00041A4BF41F001
:10542000E04141F07F614FF00000704701F0004122
:105430004FF00000704750EA01334FF09B0C18BF4B
:105440004CF0806C7EF4C8AF70471CF4801F11D004
:105450001CF4E02F03D06FEACC31490070474FF0C5
:105460004050EFF3008222F0704242EA000282F3E1
:10547000008870474FF000007047000000000000F7
:1054800000000000000000000000000000F8000024
:105490000000000000333000000000100C06100C6B
:1054A0000600000000000000000040C07840C07806
:1054B0004000043F04043F040400007088FC0830EE
:1054C0000000001820FF211E0000F008F000E01886
:1054D000000000211C031E211E0000F0088870003F
:1054E00000001E2123241927211010160E00000091
:1054F00000000000000000000000000000E01804B0
:105500000200000000071820400000020418E0001C
:1055100000000040201807000000404080F080405C
:1055200040000202010F01020200000000F0000032
:1055300000000101011F0101010000000000000046
:10554000000080B0700000000000000000000000BB
:105550000000000101010101010100000000000044
:1055600000000030300000000000000000008060FB
:105570001804006018060100000000E01008081080
:10558000E000000F102020100F00001010F80000A5
:1055900000000020203F202000000070080808883C
:1055A000700000302824222130000030088888480C
:1055B00030000018202020110E000000C02010F83C
:1055C000000000070424243F240000F8088888080D
:1055D00008000019212020110E0000E01088881812
:1055E0000000000F112020110E0000380808C838F4
:1055F00008000000003F00000000007088080888D4
:105600007000001C222121221C0000E0100808105C
:10561000E0000000312222110F00000000C0C00095
:10562000000000000030300000000000008000009A
:10563000000000008060000000000000804020109A
:105640000800000102040810200040404040404093
:1056500040000404040404040400000810204080F6
:10566000000000201008040201000070480808082B
:10567000F0000000003036010000C030C828E810FB
:10568000E0000718272423140B000000C038E000B6
:105690000000203C23020227382008F88888887000
:1056A0000000203F202020110E00C030080808080C
:1056B0003800071820202010080008F808080810F3
:1056C000E000203F202020100F0008F88888E8081C
:1056D0001000203F20202320180008F88888E808C0
:1056E0001000203F200003000000C03008080838E8
:1056F000000007182020221E020008F808000008F9
:10570000F808203F210101213F20000808F808087F
:1057100000000020203F2020000000000808F808BA
:105720000800C08080807F00000008F888C028182A
:105730000800203F20012638200008F8080000005B
:105740000000203F20202020300008F8F800F8F862
:105750000800203F003F003F200008F830C000084C
:10576000F808203F200007183F00E0100808081044
:10577000E0000F10202020100F0008F8080808088B
:10578000F000203F210101010000E010080808108E
:10579000E0000F18242438504F0008F888888888C3
:1057A0007000203F2000030C30200070880808089B
:1057B00038000038202121221C00180808F80808A9
:1057C00018000000203F2000000008F80800000832
:1057D000F808001F202020201F000878880000C83B
:1057E0003808000007380E010000F80800F800082B
:1057F000F800033C0700073C030008186880806835
:10580000180820302C03032C30200838C800C83872
:1058100008000000203F2000000010080808C838D9
:1058200008002038262120201800000000FE020277
:1058300002000000007F40404000000C30C000002B
:105840000000000000010638C00000020202FE0055
:105850000000004040407F000000000004020202FF
:105860000400000000000000000000000000000034
:105870000000808080808080808000020204000020
:105880000000000000000000000000008080808018
:1058900000000019242222223F2008F80080800006
:1058A0000000003F112020110E00000000808080C9
:1058B0000000000E112020201100000000808088D0
:1058C000F800000E112020103F2000008080808012
:1058D0000000001F222222221300008080F088880E
:1058E00088180020203F2020000000008080808059
:1058F0008000006B94949493600008F8008080808E
:105900000000203F210000203F20008098980000E8
:1059100000000020203F2020000000000080989818
:10592000000000C08080807F000008F800008080B8
:105930008000203F24022D302000000808F80000DD
:1059400000000020203F2020000080808080808098
:105950008000203F20003F20003F8080008080802A
:105960000000203F210000203F2000008080808038
:105970000000001F202020201F0080800080800069
:10598000000080FFA12020110E0000000080808018
:105990008000000E112020A0FF8080808000808089
:1059A000800020203F2120000100000080808080B6
:1059B00080000033242424241900008080E08080AB
:1059C00000000000001F20200000808000000080F8
:1059D0008000001F202020103F2080808000008059
:1059E000808000010E300806010080800080008069
:1059F00080800F300C030C300F000080800080800E
:105A000080000020312E0E31200080808000008038
:105A1000808080818E7018060100008080808080E8
:105A200080000021302C2221300000000000807C0A
:105A3000020200000000003F404000000000FF00A4
:105A4000000000000000FF0000000002027C800057
:105A500000000040403F000000000006010102027B
:105A600004040000000000000000000068000004C2
:105A700076005401F7FD000175191A0C6A231B1CEE
:105A80001F207274433B4138393A6B6C376F0624E0
:105A90006D6E700083000000000800000001001817
:105AA00032000500000020410000D242295C0F3E78
:105AB0009A99993E3333733F295C0F3E0000700082
:105AC00000000024000000020003000000650054F4
:105AD000FFEF0000FA80000B12820001030C30C3BC
